:020000040800F2
:10000000482200202D030008C74500082D3B0008AA
:10001000C545000809180008014F0008000000004D
:100020000000000000000000000000004D02000879
:100030000B18000800000000A9020008ED490008A4
:100040004703000847030008470300084703000868
:100050004703000847030008470300084703000858
:100060004703000847030008470300084703000848
:100070004703000847030008470300084703000838
:1000800047030008470300088916000847030008D3
:100090004703000847030008470300084703000818
:1000A0004703000847030008470300084703000808
:1000B000470300080000000000000000470300089C
:1000C000470300080000000000000000470300088C
:1000D00000000000C94E0008F54E000800000000B6
:1000E000470300084703000800000000000000006C
:1000F0000000000000000000000000000000000000
:10010000000000000000000000000000470300089D
:10011000000000000000000047030008470300083B
:100120004703000847030008470300084703000887
:10013000470300080000000000000000000000006D
:100140004703000847030008470300084703000867
:100150004703000847030008470300084703000857
:100160003D3B0008313B0008470300080000000049
:1001700047030008470300080000000000000000DB
:1001800047030008470300084703000800F002F88F
:1001900000F04CF80AA090E8000C82448344AAF1D5
:1001A0000107DA4501D100F041F8AFF2090EBAE8D3
:1001B0000F0013F0010F18BFFB1A43F0010318479B
:1001C0004073000060730000103A24BF78C878C103
:1001D000FAD8520724BF30C830C144BF04680C604D
:1001E000704700000023002400250026103A28BF95
:1001F00078C1FBD8520728BF30C148BF0B60704799
:10020000662907F06A80642900F070810020704739
:100210001FB507F058F800F0F9FC04000020002199
:1002200006F088FEE0601FBD10B510BD00F0EEFDC9
:100230001146FFF7EDFF04F08DFE00F00CFE03B455
:10024000FFF7F2FF03BC00F04FFE00002C4B1968D3
:10025000086800F05AB880F30988BFF36F8F4FF039
:10026000000080F311887047000000000848006813
:10027000006880F308884FF0000080F3148862B6AD
:1002800061B6BFF34F8FBFF36F8F00DF00BF00BFBA
:1002900008ED00E0DFF80C00016841F47001016036
:1002A000704700BF88ED00E0EFF30980BFF36F8F68
:1002B000134B1A681EF0100F08BF20ED108A20E9BA
:1002C000F04F106009B44FF0500080F31188BFF375
:1002D0004F8FBFF36F8F05F0FBFE4FF0000080F3F0
:1002E000118809BC1968086800F014B81EF0100FD6
:1002F00008BF00F014B880F30988BFF36F8F704710
:1003000054000020EFF30580704730C8B0E8C04FBC
:10031000FFF7A1BF30C8B0E8C04FFFF7E7BFB0ECB0
:10032000088AB0EC08CAFFF7E6BF0000094880471A
:1003300009480047FEE7FEE7FEE7FEE7FEE7FEE7C7
:10034000FEE7FEE7FEE7FEE704480549054A064BDF
:1003500070470000914A00088D010008481C0020E9
:1003600048220020481E0020481E002053EA020CAC
:1003700000F069802DE9F04B4FF00006002B1FBF05
:10038000B3FA83F503FA05F424FA05F65E4012BFCA
:100390001643B2FA82F502FA05F4C5F120051EBF34
:1003A00022FA05FC44EA0C04203556EA044C4FEAD4
:1003B000144418BF641C4FF000084FF0000990422D
:1003C00071EB030C39D3002919BFB1FA81F701FA97
:1003D00007F6B0FA80F700FA07F6C7F120071EBF4C
:1003E00020FA07FC46EA0C062037B6FBF4FCA7EB24
:1003F0000507103F07F01F0BCBF120060CFA0BFB93
:100400002CFA06F644BFB3460026202FA4BF5E4652
:100410004FF0000B5BEA060C08BF4FF0010B19EB25
:100420000B09ABFB027C48EB0608C01B06FB02CCA9
:100430000BFB03CC71EB0C01C1E70B4602464146B6
:100440004846BDE8F08B13B54FF000004FF00001B7
:10045000AFF30080BDE81C40704700000FB41CB52E
:10046000074B06AA7B4469460090059800F061FBA3
:100470000020694600F070FB1CBC5DF814FB000016
:10048000F10600002DE9F0410E46044600202062EE
:100490002046E168884730B3252805D0D4E90121FA
:1004A0009047206A401CF2E7E16820460027884711
:1004B000050018D0A5F14100192802D820354FF4C5
:1004C00000673246294620462760FFF799FE40B173
:1004D000012804D0F61D26F007060836D8E7361D99
:1004E000D6E72846DAE7206ABDE8F0812DE9F04139
:1004F0000646002410687529314616A510D0AFF3C2
:100500000080002802DA404213A507E031688A071C
:1005100001D512A502E0490704D511A5012401E087
:10052000AFF3008000210A2206F1240709E0B0FBA6
:10053000F2FCB0FBF2F302FB1C003030785418469A
:10054000491C0028F3D123462A463046BDE8F04135
:1005500000F07FB8000000002D0000002B0000001C
:1005600020000000032A40F2308010F0030C00F05D
:10057000158011F8013BBCF1020F624498BF11F8DD
:1005800001CB00F8013B38BF11F8013BA2F1040296
:1005900098BF00F801CB38BF00F8013B11F003030E
:1005A00000F0DF82083AC0F0088051F8043B083AB6
:1005B00051F804CBA0E80810F5E7121D5CBF51F814
:1005C000043B40F8043BAFF30080D20724BF11F88E
:1005D000013B11F801CB48BF11F8012B24BF00F8F3
:1005E000013B00F801CB48BF00F8012B704702F037
:1005F000FF0343EA032242EA024200F0E6BA4FF068
:10060000000200B5134694469646203922BFA0E862
:100610000C50A0E80C50B1F12001BFF4F7AF09076E
:1006200028BFA0E80C5048BF0CC05DF804EB89005F
:1006300028BF40F8042B08BF704748BF20F8022BA2
:1006400011F0804F18BF00F8012B704770477047BA
:1006500070472DE9F0470D4699469246044600F151
:1006600024080168880604D5E06921F010012160A2
:1006700000E00120A84201DD471B00E00027A1693E
:100680007A1902EB0900081AA0612078C00602D48A
:100690002046AFF30080002608E0D4E901211AF8D3
:1006A00006009047206A401C761C20624E45F4DB11
:1006B0002078C0060AD52046AFF3008006E0D4E9D2
:1006C000012130209047206A401C2062381EA7F18B
:1006D0000107F4DC07E0D4E9012118F80500904790
:1006E000206A401C2062281EA5F10105F3DC20468B
:1006F000AFF300802078000602D50220BDE8F08725
:100700000120FBE770472DE9FF4F0C461E464FF0D6
:10071000FF378BB0D2E90001DDF860800A908A468D
:10072000C1F30A5505B93D46002108464FF00000C7
:10073000BAF1000F00F4400005DA00EB80004FF43E
:10074000400101EA50004FEA9059B9F1010F00DD74
:10075000B9460A9850EA4A000ED044F61050A5F265
:10076000FF3545432F14B8F1000F1ED07542291EE6
:100770001EDDC9F100021CE0B8F1010F4FF00000CE
:1007800001D0302103E0F24305E02154401CB04287
:10079000FBDB30460022002121540B99C1F8088070
:1007A000C1E900200FB000F0BCB9BD1B6D1CDEE735
:1007B0004A4600DA694206A800F0B2FA06AB93E8AE
:1007C000070003AB83E8070050460A9900F093FB4B
:1007D0008DE80700A0F500501F3800900398002D09
:1007E0000ADD42F21F014A460844002303A9039090
:1007F000684600F0FCFD09E0A0F500504A461F38AD
:10080000002303A90390684600F006FE8DE8070068
:100810000004000C03D04FF0FF30410800E0104608
:10082000B8F1000F03D00022009215461EE0751E9D
:1008300005D400F0EFF9303262556D1EF9D5B3469C
:100840000122084302D000227F1C04E020783028D7
:1008500001D100227F1E002A099784D01DE0112DAE
:1008600007DA00F0D7F9303262556D1C50EA010208
:10087000F5D1084302D00098C8B10EE00021681EEF
:1008800005E0235C625C63542254401E491C814293
:10089000F7DBAB46A81B401E0990002004F80B00B4
:1008A0000B98099AC0F80880C0E9002B7AE7112656
:1008B0004FF0000857E72DE9F04F88460446D21D57
:1008C00022F0070191B0D1E90001CDE90A0104F05D
:1008D00018FB02460B98C00F01D02D2007E02068BE
:1008E000810701D52B2002E0202101EAC000032A64
:1008F000099001D0072A05DB03464146204600F057
:10090000CFF90BE12078800601D5E06900E00620F0
:10091000B8F1650F814606D0B8F1660F18D0B8F16E
:10092000670F70D131E00020B9F1110F009001DBA9
:10093000112301E009F101030AAA01A90CA8FFF79C
:10094000E2FEDDE90C70002609F10105834647E06F
:1009500001204B4600904FF000470AAA01A90CA8BD
:10096000FFF7D1FEDDE90DB00C995D46002610B908
:1009700009F101000D18B9EB050003D4C0F1FF36F1
:1009800009F10105A5EB09002BE0B9F1010F01DA2E
:100990004FF001090020B9F1110F0090484601DD28
:1009A000112300E003460AAA01A90CA8FFF7ABFE39
:1009B000DDE90C704D4600268346207800070AD4F6
:1009C000AB4500DA5D4601A8012D04DD411911F89F
:1009D000011C302907D04F4502DA17F1040F04DA61
:1009E000012082460FE06D1EEEE7002F02DCED1BBA
:1009F0003E4403E0781CA84200DD7D1CB81B00F1DA
:100A0000010A4FF000472078000703D4AA4501DB14
:100A10004FF0FF3A0021B7F1004F0DF143088DF878
:100A2000431024D002202B23002F01DA7F422D23F4
:100A30000A21021EA0F1010000DC5FB197FBF1FC6E
:100A400097FBF1F201FB1C7C17460CF1300C08F807
:100A500001CDEEE7A8F1010003702188090501D559
:100A6000452100E06521A0F1010800F8011C09986A
:100A70000FA9A1EB0807FF1D00B10120411901EBEF
:100A8000EA70A1693844081A401EA0612078C006A7
:100A900002D42046AFF30080099828B1D4E901219F
:100AA0009047206A401C20622078C00622D520464C
:100AB000AFF300801EE0002E04DBB34502DD01A889
:100AC000805D00E03020D4E901219047206A401C7D
:100AD0002062761CAAF101005FEA000A0AD100F048
:100AE00095F8C0680168405CD4E901219047206A0C
:100AF000401C2062281EA5F10105DCDC07E0D4E9DA
:100B0000012118F8010B9047206A401C2062381E12
:100B1000A7F10107F3DC2046AFF30080032011B0FA
:100B200041E630BCBDE8C08F01694A1C026108780B
:100B3000704700B58FB0CDE901310021059105491D
:100B40007944CDE9031011466846FFF79BFC0FB0CE
:100B500000BD0000E5FFFFFF0A6802F8010B0A6014
:100B6000704710B5203AC0F00B80B1E81850203A19
:100B7000A0E81850B1E81850A0E81850BFF4F5AF3D
:100B80005FEA027C24BFB1E81850A0E8185044BFC7
:100B900018C918C0BDE810405FEA827C24BF51F834
:100BA000043B40F8043B08BF7047D20728BF31F828
:100BB000023B48BF11F8012B28BF20F8023B48BF79
:100BC00000F8012B70474FF000020429C0F012809A
:100BD00010F0030C3FF415ADCCF1040CBCF1020F86
:100BE00018BF00F8012BA8BF20F8022BA1EB0C01C5
:100BF000FFF707BD5FEAC17C24BF00F8012B00F8B6
:100C0000012B48BF00F8012B7047000000487047D7
:100C1000081C002030B5B0F10A024FEA900E71F1C5
:100C200000034EEA817EB0EB0E0061EB91014FEACA
:100C3000101E4EEA017E10EB0E0041EB11114FEA3F
:100C4000102E4EEA016E10EB0E0041EB11214FEA1F
:100C5000104E4EEA014E10EB0E0041EB11414018D0
:100C600041F100014FEAD00040EA41704FEAD10162
:100C700010EB80054FEA810444EA907444EB0104D0
:100C80006D1944EB0404521BA3414FF0000348BF0D
:100C90000A3200D530BD401C41F1000130BD0000DA
:100CA0002DE9F0411F46044603260168072A01F496
:100CB000006004DB08B116A505E016A503E008B145
:100CC00015A500E015A521F010002060A069C01E48
:100CD000A0610FB1401EA0612046AFF300804FB16C
:100CE000D4E9012138469047206A401C2062C01C8C
:100CF000206206E0206AFAE7D4E9012115F8010B29
:100D00009047761EF8D22046AFF30080BDE8F08110
:100D10004E414E006E616E00494E4600696E66009F
:100D20002DE9F047814616468AB0354878440DC80B
:100D30008DE80D0032487844801C03AC0DC884E86F
:100D40000D0041F69B300844372190FBF1F290FBF7
:100D5000F1F5A5F1800501FB12041B3C02D56442AC
:100D6000012000E00020DFF898A080460027FA4428
:100D7000AAF1BE0A0EE0E0070AD03246684607EB49
:100D8000470101230AEB810100F046FB8DE80700D3
:100D900064107F1C002CEED1194F7F44AE3F19E048
:100DA000E80715D007EB04100DF1180A90E80E00C3
:100DB0008AE80E00C068F04201D1981908903246C6
:100DC000012306A903A800F027FB03AB83E8070073
:100DD0006D10641C002DE3D14FF0010332466946CB
:100DE000B8F1000F03A802D000F001FB01E000F011
:100DF00013FBC9E90001C9F808200AB0BDE8F08773
:100E00005C67000000487047E81B00207546FFF74C
:100E1000F9FFAE4605006946534620F007008546B7
:100E200018B020B5FFF790FABDE820404FF000065B
:100E30004FF000074FF000084FF0000B21F00701C2
:100E4000AC46ACE8C009ACE8C009ACE8C009ACE805
:100E5000C0098D46704710B50446AFF300802046A8
:100E6000BDE81040FFF7EBB94FF0013C50F8042B00
:100E700051F8043B9A4221D1A2EB0C03934313EAAD
:100E8000CC1317D150F8042B51F8043B9A4215D1DA
:100E9000A2EB0C03934313EACC130BD150F8042BB1
:100EA00051F8043B9A4209D1A2EB0C03934313EA95
:100EB000CC13DBD04FF00000704700BFD01A01BA4E
:100EC000B1FA81F101F0180122FA01F0CB40C1F131
:100ED0002001DBB2C0B2C01A2CFA01F3D11A91433F
:100EE00011EAC311E6D1704701491820ABBEFEE7F5
:100EF0002600020070475FEA400C08BF91F0000F27
:100F00004FEA8C234FEAC12243EA51514FEA1C5069
:100F100018BF00F5F0404FEA300018BF41F0004123
:100F20005FEA6C5C00F02980BCF1FF3F08BF40F035
:100F300080407047130C06BF12044FF0100C4FF0A6
:100F4000000C130E04BF12020CF1080C130F04BFA7
:100F500012010CF1040C930F04BF92000CF1020C6F
:100F6000D30F04BF52000CF1010C11464FF00002E8
:100F7000A0F11F00A0EB0C00704711F0004F08BF5C
:100F8000704731F000413FF4D5AF0B0C06BF0904A8
:100F90004FF0100C4FF0000C0B0E04BF09020CF1C7
:100FA000080C0B0F04BF09010CF1040C8B0F04BFDC
:100FB00089000CF1020CCB0F04BF49000CF1010CAD
:100FC000CCF12003A0EB0C0022FA03F302FA0CF29E
:100FD00041EA030100F10100704720F07F4C80EAF4
:100FE000030023F07F47ACEB070303F57C5300F0CD
:100FF000004003F1FF032DE980494FEA154B09B486
:101000004FEA144325EA0B4E24EA03480FF2042664
:1010100006EB132749083E785FEA320203FB0667B6
:10102000C7F5000707FB06F64FEA54374FEAD646E6
:1010300006F1020607FB066CCCF1005C4FEA1C4788
:101040002CEA074C07FB06F40CFB06F504EB1546EF
:101050004FEA961634BF00204FF000404FEAD137D8
:1010600006FB07FC4FEA1C4C0CFB0BF7D21B03FBE7
:101070000CF761EB07010CFB0EF7B0EB074072EBCE
:1010800017420CFB08F734BFA2EB0742B2EB074252
:1010900061EB17414FEA0C444FEA910706FB07FC4E
:1010A0004FEA1C4C0CFB0BF7B0EBC74072EB57320E
:1010B00003FB0CF734BFA2EBC742B2EBC74261EBB4
:1010C00057310CFB0EF7B0EBC70072EB57720CFBFD
:1010D00008F734BFA2EBC702B2EBC70261EB57714E
:1010E000039F4FEA816141EA921104EBCC044FEA7D
:1010F000D1374FEA826206FB07FC42EA90124FEAC0
:1011000080604FEA1C4C0CFB0BF7D21B03FB0CF767
:1011100061EB07010CFB0EF7B0EB074072EB1742D7
:101120000CFB08F734BFA2EB0742B2EB074261EBBE
:1011300017414FEA8C554FEA910704EB9C2406FBBC
:1011400007FC4FEA1C4C0CFB0BF7B0EBC74072EBF3
:10115000573203FB0CF734BFA2EBC742B2EBC742D6
:1011600061EB57310CFB0EF7B0EBC70072EB577217
:101170000CFB08F734BFA2EBC702B2EBC70261EB6E
:10118000577115EB4C254FEA816141EA92114FEA04
:1011900082624FEAD13742EA901206FB07FC44F123
:1011A00000044FEA80604FEA1C4C0CFB0BF7D21B8B
:1011B00003FB0CF761EB07010CFB0EF7B0EB0740EC
:1011C00072EB17420CFB08F734BFA2EB0742B2EBFD
:1011D000074261EB174115EB1C154FEA813141EADB
:1011E00092414FEA823242EA90424FEA80304FEA1F
:1011F0000C7644F1000448EA03434EEA0B484FF0F2
:10120000000EB2EB080C71EB030724BF62463946AF
:101210004EEB0E0E4FF0000B0018524149414BEBC4
:101220000B0BB2EB080C71EB03077BF1000B24BF37
:10123000624639464EEB0E0E4FF0000B001852413D
:1012400049414BEB0B0BB2EB080C71EB03077BF145
:10125000000B24BF624639464EEB0E0E51EA0207E0
:1012600018BF46F0010616EB0E7655F1000254F158
:10127000000103D5BDE88901BDE80088BDE889010A
:10128000BDE80048B619524141EB0101A3F1010349
:10129000704780807F7E7D7C7B7A797877767675E3
:1012A0007473727171706F6E6E6D6C6C6B6A6A695B
:1012B0006868676666656464636362616160605FF5
:1012C0005F5E5E5D5D5C5C5B5B5A5A59595858576E
:1012D00057565655555554545353525252515150D6
:1012E00050504F4F4F4E4E4D4D4D4C4C4C4B4B4B29
:1012F0004A4A4A494949484848474747474646466F
:1013000045454544444444434343434242424241A9
:101310004141002B9C4630D477002BD01CB54FEABE
:10132000370703B44FF010004FF01001BAF1000F6F
:1013300006D0BCF1000FDCBF40F0080040F008010F
:101340004FF000000FBCBDE810400BF1010BBBF1EA
:10135000010F08BF5FEA170722BF12F1010211F166
:1013600001014FF0004143F1000300F0004043EA67
:1013700000007047F9D35708D0E746EA064613F154
:10138000400F4FEA16461FDD13F1200FDFBF164353
:101390000A46002120335B42BED0C3F1200746EA53
:1013A000064602FA07F74FEA164646EA0706C3F171
:1013B000200722FA03F201FA07F721FA03F14FF0AE
:1013C000000342EA0702A7E746EA020646EA0646A3
:1013D0004FEA164646EA0106BCBF46EA0646360C08
:1013E0004FF000034FF000024FF0000194E72DE9A9
:1013F000804C9A46934670B491E8380007C831EAA9
:10140000400C48BF34EA430C03D5FFF7E6FDFFF775
:1014100080FFF0BCBDE8008C2DE9804C9A469346D5
:1014200070B491E8380007C810F0804F08BF13F07F
:10143000804F03D100F005F8FFF76BFFF0BCBDE86B
:10144000008C20F07F4780EA030023F07F4C07EBFD
:101450000C03A3F57C5300F00040A3F1FE0392F0CF
:10146000000F00F0B38095F0000F00F077802DE9B9
:1014700001494FEA11404FEA144621EA004800FBB7
:1014800006FC24EA064708FB06F607FB08F800FB03
:1014900007F718EB06484CEB164C4FEA124B18EBCB
:1014A00007484FEA15464CEB174022EA0B4E0BFB60
:1014B00006FC25EA06470EFB06F607FB0EFE0BFBB5
:1014C00007F71EEB064E4CEB164C4FF000061EEBDA
:1014D000074E4CEB174B18EB0B0840F1000018EBD4
:1014E0000E0B58EB000840F100008F1A4FF000017E
:1014F0003CBFC943661B14BFB5EB040C00213CBFC5
:10150000C943F61B4FEA17444EEA8E0E27EA0445FC
:101510004FEA1C4704FB07622CEA074C05FB07F760
:101520000CFB05F604FB0CFC16EB074642EB1742DE
:1015300016EB0C4642EB1C421BEB060658EB020274
:10154000414146EA9E0601D5BDE80189B6195241DE
:1015500041EB0101A3F10103BDE801894FEA144504
:101560004FEA114724EA054621EA074C05FB07F438
:1015700006FB07F70CFB06F105FB0CFC11EB074122
:1015800044EB17444FEA124711EB0C4144EB1C4467
:1015900022EA074C05FB07F206FB07F70CFB06F6F1
:1015A00005FB0CFC16EB074642EB174216EB0C460C
:1015B00042EB1C456A1854F1000148BF7047B61948
:1015C000524141EB0101A3F10103704795F0000F77
:1015D00037D04FEA11424FEA144721EA024624EA83
:1015E000074C02FB07F106FB07F70CFB06F402FBB6
:1015F0000CFC14EB074441EB17414FEA154714EB81
:101600000C4441EB1C4125EA074C02FB07F506FBA5
:1016100007F70CFB06F602FB0CFC16EB074645EB46
:10162000174516EB0C4645EB1C42121951F100010F
:1016300048BF7047B619524141EB0101A3F10103C4
:1016400070474FEA14454FEA114724EA054621EA5C
:10165000074C05FB07F106FB07F70CFB06F24FF002
:10166000000605FB0CFC12EB074241EB174112EBA5
:101670000C4251EB1C4148BF7047921841EB0101ED
:10168000A3F101037047000010B519482DED048B3C
:1016900000F0BFFA00EE100A164CDFED179AB8EE14
:1016A000408ADFED168A9FED169AA06860B100F0BF
:1016B00095F839EEC80A0020A060C0EE280A20EE96
:1016C000890A84ED000A0BE000F072F839EEC80ACE
:1016D0000120A060C0EE280A20EE890A84ED010AEC
:1016E0000348BDEC048BBDE8104000F095BA000043
:1016F00038010020380000200000804500C05A4515
:101700000000C842F8B504460020009020688168B7
:1017100011F0010F41D18168214A11422ED1816817
:10172000D5432940491C81601E48806800F0E07064
:1017300000020DD51C481D490068B0FBF1F0401CAB
:1017400000EB4000800000E0401E00900028FBD12C
:1017500000F066FE06461BE0816811F0010F03D120
:1017600081682940491C816000F05AFE801B0228D4
:101770000ED920680068C043C00709D0606D40F0F2
:1017800010006065A06D40F00100A0650120F8BD6B
:1017900020680168C943C907DED10020F8BD0000F8
:1017A0003F0000800003045050000020400D030063
:1017B00000B587B018216846FEF721FF0548009064
:1017C0006946054800F02AF8002801D000F01EF80C
:1017D00007B000BD000180213801002000B587B0AE
:1017E00018216846FEF70BFF05480090694605483A
:1017F00000F014F8002801D000F008F807B000BD90
:101800000002B02538010020FEE7704772B6FEE7FF
:101810007047704770477047704700002DE9F84FD8
:1018200000270446009790F85000DFF8B0930D466B
:10183000B846012811D0012684F85060206802F0D3
:10184000B1FD60B1606D40F0200060655FF00107A0
:1018500084F85080384600F0D7B90220FBE7696869
:101860000C20052912D8022907D0032907D0042902
:1018700007D0052907D0062107E0686006E012219D
:1018800003E0182101E04FF480716960D5E900217F
:10189000236800EA91101844036B01F01F014FF018
:1018A0001F0C0CFA01FCC2F3846223EA0C038A4089
:1018B00013430363206802F075FD8246206802F03E
:1018C0006DFD5AEA00001DD1AA682968206802F05F
:1018D00075FD20686969C268C2F3C1025200914077
:1018E0002A69042A0FD000EB82002B68026EDFF811
:1018F000F0C203F0F84302EA0C020B431A4342F031
:101900000041016672E0002102F042FD40032068C0
:101910004FF0000172D002F03BFD90FAA0F0B0FA57
:1019200080F1286842036ED090FAA0F0B0FA80F0FF
:10193000814204D100221146206802F04EFD0121AF
:10194000206802F025FD400320684FF001015DD0C2
:1019500002F01EFD90FAA0F0B0FA80F12868420370
:1019600059D090FAA0F0B0FA80F0814204D1002260
:101970000121206802F031FD0221206802F008FDFB
:10198000400320684FF0020148D002F001FD90FAB8
:10199000A0F0B0FA80F12868420344D090FAA0F099
:1019A000B0FA80F0814204D100220221206802F0C6
:1019B00014FD0321206802F0EBFC400320684FF087
:1019C000030133D002F0E4FC90FAA0F0B0FA80F109
:1019D000286842032FD090FAA0F0B0FA80F081423C
:1019E00004D100220321206802F0F7FC20688168FE
:1019F00011F0010F22D0ACE000E004E002F0C8FCDE
:101A0000C0F384618DE7C0F3846091E702F0C0FC0D
:101A1000C0F38461A2E7C0F38460A6E702F0B8FCDB
:101A2000C0F38461B7E7C0F38460BBE702F0B0FCA9
:101A3000C0F38461CCE7C0F38460D0E72A7B2968D7
:101A400050F8B03FC1F3120C23EA0C0302F0180C5B
:101A5000644A22FA0CF20A4013430360E9684945DC
:101A600077D1286841031CD090FAA0F1B1FA81F136
:101A7000491C01F01F0109294FEA403132D80029E1
:101A800012D000BF90FAA0F1B1FA81F101F1010189
:101A900001F01F0106FA01F609D100BFC0F384610D
:101AA00009E0C0F38461E3E7C0F38461EEE790FAF4
:101AB000A0F1B1FA81F101F1010101F01F0146EA43
:101AC000816102D1C0F3846003E090FAA0F0B0FA23
:101AD00080F000F1010000F01F0000EB400041EA3F
:101AE000005132E000290ED090FAA0F1B1FA81F154
:101AF00001F1010101F01F0106FA01F606D100BF54
:101B0000C0F3846106E0C0F38461F1E790FAA0F1CC
:101B1000B1FA81F101F1010101F01F0146EA816191
:101B200002D1C0F3846003E090FAA0F0B0FA80F034
:101B300000F1010000F01F002B4A00EB400002EB17
:101B4000005041EA000141F00071AA68206802F0EB
:101B500035FC26482A6802423FF47AAE2448816860
:101B6000244D254B01F0E071AA421BD10D0219D47E
:101B700022689A427FF46CAE826841F4000122F040
:101B8000E0720A4382601D481D490068B0FBF1F015
:101B9000401C00EB4000800000E0401E0090002848
:101BA000FBD155E6174DAA4207D1CD0105D42268D5
:101BB0009A42F6D141F080710AE06FF00045EA42A6
:101BC000EFD14A02EDD422689A42EAD141F4800171
:101BD000826822F0E0720A43826039E600007F40AA
:101BE00000F0FF03FFFF0700000020FE0000088058
:101BF00000030450000052C70000045050000020B1
:101C0000400D0300000084CB18BCBDE8E08F704796
:101C100070470068006C70472DE9F0410446006889
:101C200006684568B0070ED5A8070CD5606DC006DC
:101C300003D4606D40F4006060652046FFF7E8FD66
:101C4000216802200860700701D5680703D43007B7
:101C500025D5280723D5606DC00603D4606D40F4F8
:101C600000706065206802F0A1FB90B12068C16837
:101C700089040ED4016809070BD502F093FB0028F4
:101C80007DD0606D40F010006065A06D40F00100F7
:101C9000A0652046FFF7BBFF21680C200860B00656
:101CA00001D5A80603D4700631D568062FD5606D1E
:101CB000C00603D4606D40F4005060652068C16CBC
:101CC00011F0C00F7DD0002702F070FB21680246A2
:101CD000C868B7B1830102D59AB1820411D40A68E9
:101CE00052060ED580020CD4084602F057FB00289D
:101CF0007FD0606D40F010006065A06D40F0010085
:101D0000A0652046FFF785FD216860200860300649
:101D10000BD5280609D5606D40F4803060652046FB
:101D200000F054F9216880200860F0050CD5E80522
:101D30000AD5606D40F4003060652046FFF76BFD0A
:101D400021684FF480700860B0050CD5A8050AD54D
:101D5000606D40F4802060652046FFF75DFD2168DE
:101D60004FF400700860F00617D5E80615D5606BD3
:101D700018B12068C068C0070CD0606D00E024E096
:101D800040F480606065A06D40F00200A0652046D0
:101D9000FFF73EFF21681020086070053BD56805FD
:101DA00039D5606D40F480406065A06D40F008005A
:101DB000A06521684FF4806008602046BDE8F041CE
:101DC00001E014E015E0FFF725BD2068416821F02F
:101DD0000C014160606D20F480706065606DC0042E
:101DE0003FF557AF606D40F00100606551E7012796
:101DF0006AE72068416821F060014160606D20F46D
:101E000080506065606DC0053FF57BAF606D40F050
:101E10000100606575E7BDE8F0810000F8B54FF09E
:101E2000000504002E46009502D0606D10B107E059
:101E30000120F8BD204600F0CBF8A66584F850607C
:101E400020688168C1F3407119B18168574A114017
:101E5000816020688168C1F3007189B98168544A42
:101E6000114041F080518160524853490068B0FBF5
:101E7000F1F04000801C00E0401E00900028FBD1E3
:101E800020688168C1F3007141B9616D41F01001B2
:101E90006165A16D41F00101A165012502F082FAA1
:101EA000616DC90600D430B1606D40F0100060650E
:101EB00001252846F8BD606D20F4807040F00200D6
:101EC00060652068806810F0010F0BD13B48806886
:101ED00010F0010F06D13A486168826822F47C1242
:101EE0000A438260E168606B627E0843A16841EA50
:101EF0004231084394F8201040EA0140012904D1FE
:101F0000A18C304A02EB41410843A16A29B101F496
:101F10007071E26A014342EA01002168CA682A4BF3
:101F20001A400243CA60206802F03CFA0646206864
:101F300002F034FA304315D1207E94F8301080033B
:101F400040EA41002168CA6844F202039A4302430E
:101F5000CA6094F8380001280CD02068016921F08B
:101F600001010161206901282068016B21F00F0146
:101F700011D013E0D4E90F010843D4E91112114341
:101F8000084321680A6940F2FC739A43104340F009
:101F900001000861E6E7E269521E11430163606DCA
:101FA00020F0020040F00100606582E7C0FFFF5FA3
:101FB000C0FFFF7F50000020400D030000000450D0
:101FC000000304500000FEFF07C0F0FF7047000050
:101FD00010B59CB00446142115A8FEF710FB54213F
:101FE0006846FEF70CFB2049206888423AD14FF43E
:101FF00080400090800312900120019002901020F8
:10200000039007200490022005900690C0050790D9
:10201000684600F071FD08B1FFF7F8FB1348C16C8A
:1020200041F40051C164C16C01F400511A91C16CBA
:1020300041F00101C164C06C15A900F001001A90C3
:10204000182015900B201690002017904FF090400C
:1020500000F0E0F800220521122000F0CFFC122051
:1020600000F0BEFC1CB010BD000004500010024087
:1020700010B50446006802F095F910B10221084637
:1020800010BD94F8500001280CD0012084F85000B5
:102090002046FFF737FB01004FF0000004D084F822
:1020A0005000ECE7022010BD626D40F601639A43D8
:1020B00042F480726265626DD20404D5A26D22F092
:1020C0000602A26500E0A06523681C221A6084F85D
:1020D00050002068426822F01C02426060690828B3
:1020E0002068426802D042F0040201E042F0080297
:1020F0004260606B20B92068426842F01002426082
:102100002068C268920119D5626D22F4005242F42F
:10211000805262656269082A426807D022F0400254
:1021200042602068426842F0200206E022F020026D
:1021300042602068426842F0400242602068826843
:10214000024B1A40121D826099E70000C0FFFF7F1A
:1021500010B590F825100022022905D00421C16392
:1021600080F82420012010BD01680B6823F00E03C5
:102170000B6001680B6823F001030B6090F84410BA
:10218000046C01F01C03012101FA03F3636080F881
:10219000251080F82420104610BD10B590F82510A9
:1021A0000024022903D00421C16301241AE001683C
:1021B0000A6822F00E020A6001680A6822F0010231
:1021C0000A6090F84410036C01F01C02012101FA2E
:1021D00002F25A6080F82510002180F82410816BEB
:1021E00001B18847204610BD90F8250070470000D7
:1021F00070B5044600F014F90546601C02D004488E
:102200000078044400F00CF9401BA042FAD370BDE2
:10221000440000202DE9F04FDFF8E0910023012772
:102220000326A9F1040B85B00F2509F1040AABF1CF
:10223000040EDBE007FA03FC12EA0C027ED00C79F4
:1022400004F00304012C01D0022C20D184680094F6
:102250005C0006FA04F80494009C24EA0804009444
:10226000D1F80C80049C08FA04F8009C48EA0408A1
:10227000C0F80880446824EA0C0491F804C0CCF348
:10228000001C0CFA03FC4CEA040CC0F804C00C79E6
:10229000E443A4070DD0D0F80CC04FEA430806FA77
:1022A00008F42CEA040C8C6804FA08F444EA0C04E0
:1022B000C4600C7904F00304022C19D1DC0800EB93
:1022C00084040294246A4FEA437C4FEADC6CCDF824
:1022D00010C005FA0CFC24EA0C04D1F81080DDF8DB
:1022E00010C008FA0CF848EA0408029CC4F82080E0
:1022F00004684FEA430806FA08FC24EA0C0491F843
:1023000004C00CF0030C0CFA08FC4CEA040CC0F8F6
:1023100000C04C6814F4403F67D0394CD4F860C01A
:102320004CF0010CC4F860C0246E23F0030C04F0E0
:1023300001040094334C6444029400E055E0A46826
:102340004FEA837C4FEA1C7805FA08FC24EA0C0467
:10235000B0F1904F06D0DFF8B0C0604505D14FF026
:10236000010C0BE04FF0000C08E0DFF8A0C0604566
:1023700002D14FF0020C01E04FF0070C0CFA08FC00
:102380004CEA040C029CC4F808C0D9F80040CC46C2
:10239000D1F8048094435FEAC82800D51443CCF8F0
:1023A0000040DAF80040D446D1F8048094435FEA54
:1023B000882800D51443CCF80040DBF80040DC4608
:1023C000D1F8048094435FEA883800D51443CCF8F0
:1023D0000040DEF80040F446D1F8048094435FEA00
:1023E000C83800D51443CCF800405B1C0C6822466A
:1023F000DC407FF41FAF05B000F00AB808040140CC
:10240000001002400000014000040048000800489D
:1024100030BCBDE8C08F0AB18161704781627047EE
:1024200001488068704700004400002090F8412077
:10243000202A24D190F84020012A20D0012280F8BF
:102440004020242280F841200268136823F0010311
:1024500013600268136823F48053136002681368E2
:102460000B43136001680A6842F001020A602021F0
:1024700080F84110002180F8401008467047022083
:10248000704790F84120202A22D190F84020012A5C
:102490001ED0012280F84020242280F841200268CA
:1024A000136823F0010313600268136823F4706358
:1024B00043EA0121116001680A6842F001020A60E2
:1024C000202180F84110002180F840100846704714
:1024D000022070477047704730B403689A691968E2
:1024E000D243D40509D4CC43240606D4446C44F02A
:1024F000010444644FF48074DC6153050AD4CB4377
:102500001B0607D4436C43F00803436404684FF48C
:102510008063E36192050AD4C943090607D4416C7C
:1025200041F00201416402684FF40071D161416CD5
:1025300011F00B0F02D030BC01F096BB30BC7047DD
:10254000026891691268436B002B00D018477047EE
:102550007047000070B5040004D094F841000025D5
:1025600010B106E0012070BD84F84050204600F014
:102570007BF9242084F841002068016821F00101E2
:1025800001606068216820F07060086120688168DF
:1025900021F400418160E0680128A06807D040F480
:1025A000044021688860E068022803D006E040F417
:1025B0000040F6E721684FF40060486020684168F9
:1025C000114A114341602068C16821F40041C16093
:1025D000D4E904010843A16940EA01202168C860E8
:1025E000D4E907010843216808602068016841F0C8
:1025F000010101606564202084F84100256384F8AE
:102600004250002070BD00000080000270470000B2
:102610002DE9F84F044690F84100DDF828A01F4648
:1026200090468B4620287ED194F8400001287AD02D
:10263000012084F84000FFF7F3FE064601220090D7
:102640001923D103204601F0DAFDE0BB222084F8F3
:102650004100102084F8420000256564C4F82480FD
:1026600067856563618D3148FF274FF080784FF0B3
:102670000079FF2903D927853A46009039E0618D1A
:10268000218500903AE05946204601F08BFD13E089
:1026900001F0E2FDB8B92068406A616A0870606ABA
:1026A000401C6062208D401E80B22085618D491ED5
:1026B0006185618D01B168B1608D32460028514657
:1026C0002046E5D100E002E001F014FED0B1012087
:1026D00000F030B85346002280212046009601F0D9
:1026E0008EFD0028F3D1608DFF2804D927853A4656
:1026F00000954346C7E7608D2085009594F8282013
:102700004B46C0E721682020C86121684A68084B11
:102710001A404A6084F8410084F8425084F84050DE
:102720000020D5E7FFE70220D2E700000024008068
:1027300000E800FE18BCBDE8E08F00002DE9F84F6E
:10274000044690F84100DDF828A01F4690468B46CD
:1027500020287ED194F8400001287AD0012084F806
:102760004000FFF75DFE0646012200901923D103C9
:10277000204601F044FDE0BB212084F841001020F8
:1027800084F8420000256564C4F824806785656389
:10279000618D3148FF274FF080784FF00079FF2995
:1027A00003D927853A46009039E0618D2185009054
:1027B0003AE05946204601F0F5FC13E001F0C0FD77
:1027C000B8B9606A216800788862606A401C6062FB
:1027D000608D401E6085208D401E80B22085618DF9
:1027E00001B168B1608D3246002851462046E5D1DE
:1027F00000E002E001F07EFDD0B1012000F030B831
:102800005346002280212046009601F0F8FC002863
:10281000F3D1608DFF2804D927853A4600954346B9
:10282000C7E7608D2085009594F828204B46C0E7C7
:1028300021682020C86121684A68084B1A404A6014
:1028400084F8410084F8425084F840500020D5E7D5
:10285000FFE70220D2E700000020008000E800FE31
:1028600018BCBDE8E08F00002DE9F0419CB00446A3
:10287000142115A8FDF7C3FE54216846FDF7BFFEDD
:102880002949206888424BD18015002500900C957D
:10289000684600F031F908B1FEF7B8FF234CE06C50
:1028A00040F00100E064E06C00F001001A90E06C80
:1028B00040F00200E064E06C4FF0120800F002000B
:1028C0001A908020CDE9150817AA0326042782E86C
:1028D000E00015A94FF09040FFF79CFC1020CDE9D7
:1028E000150817AA15A982E8E0001148FFF792FC25
:1028F000A06D40F40000A065A06D002200F400006F
:102900001A900521482000F079F8482000F068F876
:1029100000220521492000F071F8492000F060F8FC
:102920001CB0BDE8F0810000005C004000100240D7
:1029300000040048704770470248816802781144DB
:10294000816070474400002010B50024032000F08F
:1029500075F80F2000F008F808B1012401E000F03C
:1029600025F8204610BD000070B50E4E0546002427
:10297000307898B14FF47A71B1FBF0F00A490968E8
:10298000B1FBF0F000F0C6FD40B9102D06D20022D8
:102990002946501E00F032F8756000E00124204600
:1029A00070BD000044000020500000200B4882B0A1
:1029B000016E41F001010166016E01F0010100911B
:1029C000816D41F080518165806D002200F0805062
:1029D00000900F21901E02B000F010B800100240CD
:1029E000002809DB00F01F0201219140400980000E
:1029F00000F1E020C0F8001170470000F0B40E4B69
:102A00001B680C46C3F30223C3F10705042D00D94C
:102A10000425191D072901D2002300E0DB1E012631
:102A200006FA05F1491E214099409E40761E164047
:102A30003143F0BC02F07DBA0CED00E0064900F035
:102A4000070208684FF6FF03184040EA0220034AD5
:102A500010430860704700000CED00E00000FA052C
:102A60001649B0F5007F0868C0F3412009D002285C
:102A700005D0086820F4C06040F480600860002041
:102A800070470128FBD0086820F4C06040F4007053
:102A900008600B483222006850430A4AB0FBF2F04B
:102AA000401C00E0401E4A69520501D50028F9D1BA
:102AB00048694005E3D503207047000000700040DE
:102AC0005000002040420F000248006800F4C0603F
:102AD00070470000007000400248016841F48071B6
:102AE00001607047007000400248016841F0040135
:102AF00001607047001002402DE9F84F044600279E
:102B000000889C4D3E46000515D5E06B60B1B0F5E0
:102B1000000F04D0B0F5400F2BD001270AE0E86881
:102B200040F48030E86024E00021201D01F04CFDDD
:102B300007001ED03E462068800338D5A86D4FF0B0
:102B40000008C00009D4A86D40F08050A865A86DA9
:102B50004FF0010800F080500090DFF81CA2DAF876
:102B6000001041F48071CAF80010FFF759FC81464B
:102B700010E0D5F88800E16B20F440000843C5F868
:102B80008800D8E7FFF74CFCA0EB0900022801D928
:102B9000032704E0DAF80000C005F3D5EFB33E46A2
:102BA000B8F1000F03D0A86D20F08050A865207800
:102BB000C00707D0D5F88800216A20F00300084339
:102BC000C5F888002078800707D5D5F88800616AA5
:102BD00020F00C000843C5F888002078800607D54F
:102BE000D5F88800A16A20F440600843C5F8880041
:102BF0002088800507D5D5F88800616B20F4402037
:102C00000843C5F888002088400509D5D5F8880014
:102C1000A16B20F44010084300E02EE0C5F88800C6
:102C20002078400607D5D5F88800E16A20F44050A6
:102C30000843C5F888002088C00507D5D5F8880066
:102C4000216B20F440300843C5F8880020884FF0FD
:102C5000006780044FF080684ED5D5F88800216C5D
:102C600020F040600843C5F88800206CB8423BD192
:102C7000E86840F48010E8603EE0D5F8900010F479
:102C8000407014D0216D814211D0D5F89000D5F854
:102C9000901020F4407041F48031C5F89010D5F8C0
:102CA000901021F48031C5F89010C5F89000C0074D
:102CB00011D0FFF7B5FB074641F2883907E000BFA6
:102CC000FFF7AEFBC11B494501D9032668E7D5F8DC
:102CD00090008007F4D5D5F89000216D20F4407065
:102CE0000843C5F890005BE7404505D10121201D50
:102CF00001F06AFC00B106462068400317D5D5F8FC
:102D00008800616C20F040600843C5F88800606C62
:102D1000B84204D1E86840F48010E86007E040451C
:102D200005D10121201D01F04FFC00B1064620888D
:102D3000400411D5D5F88800A16C20F0405008431C
:102D4000C5F88800A06CB0F1805F05D10221201D7C
:102D500001F03AFC00B106462088000406D555F87B
:102D6000880FE16C20F0804008432860304600F076
:102D700005B80000001002400070004018BCBDE81B
:102D8000E08F00002DE9F0470F4605006BD0494E5B
:102D9000306800F00700B84209D2306820F0070020
:102DA00038433060306800F00700B8425BD12878C3
:102DB000414C80070AD5A868A16801F0F00188425B
:102DC00004D9A16821F0F0010143A1602878C0076F
:102DD0002CD06868032811D0022812D0216898B13D
:102DE000490500293FDAA16821F003010143A160F0
:102DF000FFF716FB804641F2883910E0216889010F
:102E0000EFE721688903ECE78907EAE7FFF708FBAA
:102E1000A0EB0801494502D90320BDE8F087A0686E
:102E2000696800F00C00B0EB810FEFD128788007C3
:102E30000AD5A868A16801F0F001884204D2A1680F
:102E400021F0F0010143A160306800F00700B842B2
:102E50000BD9306820F0070038433060306800F04C
:102E60000700B84201D00120D7E72878400705D5F0
:102E7000A068E96820F4E0600843A06028780007B3
:102E800006D5A068296920F4605040EAC100A0601E
:102E900000F03EF8A168094AC1F30311515C01F04A
:102EA0001F01C8400649086006480068BDE8F047B1
:102EB000FFF75ABD0020024000100240C87300080E
:102EC0005000002048000020054806490068896835
:102ED000054AC1F30221515C01F01F01C84070474F
:102EE0005000002000100240087400080548064900
:102EF00000688968054AC1F3C221515C01F01F01D5
:102F0000C8407047500000200010024008740008BC
:102F100070B52549002318468A68CC6812F00C0267
:102F200004F00306214C4FEA640509D00C2A05D0B1
:102F3000042A32D0082A00D1284670BD012E10D1B3
:102F40000B681B0704D4D1F89430C3F3032302E0C9
:102F50000B68C3F30313164E56F82330DAB10C2A6C
:102F6000EBD1C86800F00300022818D0032818D05D
:102F70001846CA68CB68C2F30212C3F30623434360
:102F8000521CB3FBF2F2C868C0F34160401C400021
:102F9000B2FBF0F070BD184670BD204670BD2046F3
:102FA000E7E72846E5E70000001002400024F400AF
:102FB000D87300082DE9F84304006FD0FA4DA868D3
:102FC00000F00C06E86800F003072078C00664D51E
:102FD00076B10C2E01D1012F0AD0A06900282868F3
:102FE0007AD040F001002860FFF71AFA80465DE0D1
:102FF0002868800702D5A0690028DED0216A2868E9
:10300000000703D5286800F0F00004E0D5F894002C
:10301000F02202EA1010814216D9084601F06AFB3C
:1030200000283BD1286840F0080028602868216A01
:1030300020F0F000084328606868E16920F47F40D0
:1030400040EA0120686016E0286840F00800286027
:103050002868216A20F0F000084328606868E16968
:1030600020F47F4040EA0120686026B9206A01F020
:1030700041FB0028D5D1FFF74BFFA968CB4AC1F32C
:103080000311515C01F01F01C840C9490860C948DB
:103090000068FFF769FC00287ED12EE0CAE000BF7F
:1030A000FFF7BEF9A0EB0800022876D82868800751
:1030B000F6D5286840F0080028602868216A20F0CA
:1030C000F000084328606868E16920F47F4040EA26
:1030D0000120686011E0FFE720F001002860FFF7A1
:1030E0009FF9804606E000BFFFF79AF9A0EB0800C1
:1030F0000228DAD828688007F6D42078C00740D0A4
:10310000082E18D00C2E01D1032F14D06068B0F512
:10311000803F17D0B0F5A02F286817D020F480305A
:103120002860286820F4802028606068E0B1FFF7FC
:1031300077F9804614E02868800322D5606800286B
:1031400078D01EE0286840F48030EDE740F480201D
:103150002860F7E7FFF764F9A0EB08006428A4D81B
:1031600028688003F6D50CE0FFF75AF9804605E0A1
:10317000FFF756F9A0EB0800642896D8286880036A
:10318000F6D4207880073BD5042E11D00C2E01D127
:10319000022F0DD0E06801E0AAE1FFE000282868D6
:1031A0001ED040F480702860FFF73AF907460CE023
:1031B000286840050CD5E0680028C1D008E000BFB1
:1031C000FFF72EF9C01B022893D828684005F7D5D1
:1031D0006868217C20F0F85040EA016068600FE0E8
:1031E00020F480702860FFF71BF9074605E000BF58
:1031F000FFF716F9C01B0228B1D828684005F7D49C
:103200002078000729D560690028D5F8940012D0ED
:1032100040F00100C5F89400FFF702F9074604E00A
:10322000FFF7FEF8C01B022899D8D5F89400800754
:10323000F6D512E02BE120F00100C5F89400FFF76D
:10324000EFF8074605E000BFFFF7EAF8C01B0228C9
:1032500085D8D5F894008007F6D42078400766D545
:10326000A86D0027C00008D4A86D40F08050A86564
:10327000A86D012700F0805000904F480168C905F3
:1032800012D40168814641F480710160FFF7C8F8EB
:10329000804605E0FFF7C4F8A0EB080002287DD8BF
:1032A000D9F80000C005F5D5A068012816D005287A
:1032B000D5F8900017D020F00100C5F89000D5F89F
:1032C000900020F0040000BFC5F89000A06841F213
:1032D0008839C0B1FFF7A4F880460FE0D5F8900018
:1032E00040F00100F0E740F00400C5F89000F5E779
:1032F000FFF796F8A0EB080149454FD8D5F89000A4
:103300008007F5D50EE0FFF78BF8804606E000BF9A
:10331000FFF786F8A0EB080149453FD8D5F89000A3
:103320008007F5D41FB1A86D20F08050A8652078E3
:10333000800628D5606A0028D5F8980012D040F0A1
:103340000100C5F89800FFF76BF8074605E000BFDD
:10335000FFF766F8C01B022820D8D5F89800800730
:10336000F6D510E020F00100C5F89800FFF758F8F6
:10337000074604E0FFF754F8C01B02280ED8D5F822
:1033800098008007F6D4A06AF0B3022816D00C2E5D
:103390007DD0286820F08070286000E0A7E0FFF76B
:1033A0003FF80446A6E0000000100240C873000881
:1033B000500000204800002000700040E868E26AE9
:1033C00000F00301914228D1216B00F07002090145
:1033D0001039914221D1626B00F4FE41B1EB022F12
:1033E0001BD194F8382000F07841B1EBC26F14D1B2
:1033F000A18F00F4C00249084905A1F500119142CE
:103400000BD194F8401000E06AE04908490600F04A
:10341000C060A1F1007181424BD00C2E73D028689E
:10342000400170D4286820F080702860FEF7F8FF13
:10343000064604E0FEF7F4FF801B022857D82868F0
:103440008001F7D4F4E90B016FF00F0202EB0111D8
:103450000843218A5204490802EB4151A26841EA1B
:1034600002210843217D4FF07E42490802EB416171
:103470000843217B40EAC160E968244A11400843BF
:10348000E860286840F080702860E86800E03AE072
:1034900040F08070E860FEF7C3FF044605E000BF1F
:1034A000FEF7BEFF001B022821D828688001F7D54F
:1034B00027E02868800124D4286840F080702860C4
:1034C000E86840F08070E860FEF7AAFF044604E078
:1034D000FEF7A6FF001B022809D828688001F7D54F
:1034E0000FE000BFFEF79CFF001B022802D903205B
:1034F000BDE8F88328688001F4D4E86804490840EE
:10350000E8600020F4E70120F2E700008C809D01D4
:10351000FCFFEEFE10B5401EB0F1807F01D301200C
:1035200010BD4FF0E02460610F21601701F001FD34
:103530000020A06107202061002010BD7047704767
:10354000704700002DE9F04102680446D069116817
:10355000936840F60F0528424FF0000505D1860616
:103560007ED58E067CD5616E1BE1994F03F0010676
:103570000F40374374D0C70709D0CF0507D50127BF
:103580001762D4F8802042F00102C4F8802082073C
:103590000AD5DA0708D0276802223A62D4F88020D8
:1035A00042F00402C4F8802042070AD5DA0708D0A6
:1035B000236804221A62D4F8802042F00202C4F880
:1035C000802002070CD501F02002324308D0236886
:1035D00008221A62D4F8802042F00802C4F8802041
:1035E00002050BD54A0109D523684FF400621A621F
:1035F000D4F8802042F02002C4F88020D4F8802043
:10360000002A35D0800605D5880603D5616E09B13C
:1036100020468847D4F8800021688968490602D48A
:1036200010F0280F26D0204601F0D6FA20688068D6
:1036300040061AD52068083050E8001F21F04001EC
:1036400040E80012002AF5D1206F70B16149816312
:10365000206FFEF7A2FD00280AD0206F816B01E0E9
:103660000EE02046BDE8F04108472046FFF768FF1E
:10367000BDE8F0812046FFF763FFC4F88050F7E70C
:10368000276E2026012F7BD1C70679D5CF0677D5A7
:103690001020106220688068400641D5216F0868BC
:1036A00040680004000CE3D0B4F858208242DFD90F
:1036B000A4F85A000868006880062AD4206850E8F8
:1036C000001F21F4807140E80012002AF6D1206822
:1036D000083050E8001F21F0010140E80012002AE4
:1036E000F5D12068083050E8001F21F0400140E883
:1036F0000012002AF5D1E6672566216851E8000F1F
:1037000020F0100041E80002002AF6D1206FFEF7F9
:103710001FFDB4F85800B4F85A10401A81B22AE0DC
:10372000B4F85800B4F85A10401A81B2B4F85A00EC
:1037300000289DD000299BD0226852E8000F20F479
:10374000907042E80003002BF6D12068083050E862
:10375000002F22F0010240E80023002BF5D1E6679C
:1037600025666566226852E8000F20F0100042E8E6
:103770000003002BF6D12046FFF7E0FE78E7FFE7D5
:10378000C70209D55B0207D54FF4801010622046AE
:10379000BDE8F041FFF7D3BE020606D50A0604D500
:1037A000A16E00297FF45DAF62E74006E6D54806CA
:1037B000E4D52046026852E8001F21F0400142E8AB
:1037C0000013002BF6D18667856600F0AEF94FE74F
:1037D00020010004C54B000810B5040002D0A06F02
:1037E00010B107E0012010BD002084F874002046CD
:1037F00000F026F82420A0672068016821F001016C
:103800000160204601F00EFA0128ECD0606A10B188
:10381000204601F045F92068416821F4904141605B
:103820002068816821F02A0181602068016841F0E8
:10383000010101602046BDE8104001F095B900008B
:103840002DE9F0439BB00446142115A8FCF7D7FEE0
:1038500054216846FCF7D3FE42492068424C0327B6
:10386000002502264FF007084FF0904988423DD1CD
:103870000120009008956846FFF73EF908B1FDF772
:10388000C5FF206E40F480402066206E00F480402A
:103890001A90E06C40F00100E064E06C00F0010080
:1038A0001A90E06C40F00200E064E06C179500F0C4
:1038B00002001A904FF40070CDE91506CDE9187892
:1038C000444615A94846FEF7A5FC80201795CDE98A
:1038D0001506CDE9187415A92448FEF79BFC0022B3
:1038E00005212520FFF78AF8252036E02049884267
:1038F00035D1684600960995FFF7FEF808B1FDF747
:1039000085FFA06D40F40030A065A06D00F400308C
:103910001A90E06C40F00100E064E06C17AA00F03F
:1039200001001A900420CDE9150682E8A00115A92E
:103930004C464846FEF76EFCCDE917574FF4004061
:103940001997CDE9150615A92046FEF763FC00225C
:1039500005212620FFF752F82620FFF741F81BB07B
:10396000BDE8F08300380140001002400004004828
:10397000004400402DE9F84F0446C06F9A461646B1
:103980000D46202870D10DB306B394F874000128B9
:103990006AD0012084F874004FF00008C4F88080D9
:1039A0002221E167C4F860805834FEF739FD24F81D
:1039B000026B814624F852694FF4805354F8080989
:1039C000FF21984208D122691AB11CE0012000F0C1
:1039D0004DB840F2FF1116E07F2290B1B0F1805F48
:1039E00014D0A4F85C8000BFB4F85C70984201D198
:1039F000206990B12E46002584F8748007F0FF08F6
:103A000025E0266936B9A4F85C10EDE7216909B113
:103A10003F21F8E7A4F85C20E6E70026ECE74B46F8
:103A2000002220212046CDF800A001F0E9F908B1DC
:103A30000320CCE72068808C8EB100EA080006F8ED
:103A4000010B00BFB4F85A00401EA4F85A00B4F8A5
:103A50005A000028E3D12020E0670020B7E7384073
:103A600025F8020BEEE7FFE70220B0E718BCBDE83F
:103A7000E08F00002DE9F8430446806F1F4616468C
:103A80000D4620284FD1CDB1C6B194F8740001285D
:103A900049D0012084F874004FF00008C4F88080F9
:103AA0002120A067FEF7BCFCA4F850608146A4F872
:103AB0005260A068B0F5805F03D004E00120BDE84B
:103AC000F883206928B12E465FF0000584F87480E1
:103AD00010E00026FAE78021204601F091F9B8B9FC
:103AE000C6B116F8010B21680885B4F85200401ED3
:103AF000A4F85200B4F852004B464FF00002009771
:103B00000028E8D14FF04001204601F079F930B1AA
:103B10000320D4E735F8020BC0F30800E3E72020C8
:103B2000A0670020CBE70220C9E77047FEE700004E
:103B30000148FEF7D1BC00009C0100200148FEF7BF
:103B4000FFBC00009C010020806A0021826B02B152
:103B50009163C26B02B1916300F03CBB10B50022CF
:103B6000CC074FF0280306D090F84140422233EAB8
:103B7000040400D0F2228C0707D590F8414042F0AF
:103B80004402A34301D042F0B0020B0401D542F03D
:103B9000B802102904D0202905D0402906D007E01A
:103BA00042F0900204E042F0200201E042F04002C4
:103BB000006801689143016010BD01688A69D243C1
:103BC000920701D400228A6200688169C943C9074B
:103BD00003D0816941F00101816170472DE9F04115
:103BE000044690F841002821814320684FF00005E9
:103BF0004FF0080304D0C36184F84050BDE8F08161
:103C00008169C1F300478169FE2202EA1146816899
:103C1000C1F30902C168D4F80CE001F0FE014FF4D1
:103C2000004CBEF1020F17D14FF0060E06F006064B
:103C30000EEAD21E76450ED1A16C491CA164A16C7E
:103C40000229DBD1A564C36184F84050394620467F
:103C5000FEF741FCD2E70E4661462046FFF77EFFA5
:103C600084F840503246F1E770B5044690F84100C0
:103C7000002584F84250364AE2626585626C0A4348
:103C8000626428281FD029281DD02A281BD048F27A
:103C900003012046FFF762FF94F84100602802D03C
:103CA000202084F841006563206B2A4EA16B19B176
:103CB000112812D0212810D0E16BE9B3122824D0AA
:103CC000222822D03EE003212046FFF747FF28208C
:103CD00084F8410020486063E6E7206801684904F1
:103CE00003D5016821F480410160A06BFEF77CFAE6
:103CF000012827D0A06B866384F84050A06BFEF7A4
:103D00004CFA002823D0A06B18E020680168090451
:103D100003D5016821F400410160E06BFEF764FA0D
:103D200001280FD0E06B866384F84050E06BFEF70B
:103D300034FA00280BD000E004E0E06B816BBDE8B2
:103D4000704008472046BDE8704000F043BA70BD9F
:103D50000000FFFF493B00088540000870B504469D
:103D60001648E06200252563202084F8410084F88D
:103D70004250C8436563400711D42068406A616AB5
:103D80000870606A401C6062208D40B1401E208532
:103D9000608D401E6085606C40F00400606448F2F5
:103DA00003012046FFF7DAFE21681020C86184F87D
:103DB00040502046FEF72AFC70BD00000000FFFFC7
:103DC0002DE9F04102680446156890F841000E465E
:103DD0002027D761212806D0292804D0222809D0FD
:103DE0002A2807D00DE048F201012046FFF7B6FE71
:103DF000212005E048F202012046FFF7AFFE222015
:103E000020632068416841F40041416020684168B6
:103E1000354A114041602046FFF7CFFEE843410498
:103E200006D42068016821F480410160A06B07E09E
:103E3000000409D42068016821F400410160E06BAE
:103E400010B1006840686085F04340070FD42068D7
:103E500026F00406406A616A0870606A401C60626D
:103E6000208D20B1401E2085608D401E6085608DB4
:103E700018B1606C40F004006064002584F8425082
:103E80006563606C68B1616C2046FFF7EDFE94F8E5
:103E90004100282815D131462046BDE8F041FFF702
:103EA0005DBFE06A114EB0420DD0204600F020F810
:103EB000E66284F84170256384F840502046FEF79E
:103EC000A5FBBDE8F08194F8410084F841702228F8
:103ED000256384F84050204602D0FEF72CFDF0E721
:103EE000FEF728FDEDE7000000E800FE0000FFFF00
:103EF00070B5044600680168002584F84250C94343
:103F00004A0403D4016821F4804104E0090403D485
:103F1000016821F40041016094F84110282029290A
:103F200011D094F841102A290CD184F841002220A4
:103F3000206302212046FFF711FE84F840502046FE
:103F4000FEF7F8FC70BD84F84100212020630121B8
:103F50002046FFF703FE84F840502046FEF7EBFCB6
:103F600070BD00002DE9F047044600688A461746F8
:103F7000816900252E46C906A9464FF0200849D57B
:103F80001021C16137E000BFBAF1FF3F33D0FEF727
:103F900047FAC11B514502D8BAF1000F2BD1206856
:103FA000416894F8422001F480418369DB431B049B
:103FB0001CD4B1F5804F19D0202A17D0416841F4A4
:103FC00080414160FEF72CFA07460FE0FEF728FA21
:103FD000C01B19280AD9606C40F02000606484F886
:103FE000418084F8429084F84090012520688069DF
:103FF000C0438006EAD420688069C043800602D5A9
:10400000002DC1D003E015B92168C1F81C8046F02D
:104010000406012521688869C20505D54FF4807220
:1040200046F00106CA610125410509D522684FF411
:10403000806146F00806D1610125800502D40AE0BE
:10404000800507D521684FF4007046F00206C8616C
:10405000012500E08DB12046FFF7AFFD54F8240B99
:104060004168074A11404160206A3043206284F869
:104070001D8084F81E9084F81C902846BDE8F087C7
:1040800000E800FE2DE9F041C56A044690F84000C2
:104090008846012826D0012084F840006FEA0807EE
:1040A000B8066FEA020605D4B00603D4414620469E
:1040B000FFF786FE3A49F8064FF0807231D4F006D9
:1040C0002FD4638D102083B12168C861606C40F0EB
:1040D000040060640DB195425ED1616C2046FFF72B
:1040E000C3FD59E00220BDE8F08194F84120282A60
:1040F00002D1B5F1007F04D094F84120292A05D0DF
:104100000CE041462046FFF729FE45E08D4205D0F0
:104110002168C8612046FFF750FD3AE02168C86178
:104120003AE0780715D4700713D4608D60B1206829
:10413000406A626A1070606A401C6062208D401E96
:104140002085608D401E6085608D28BB8D4220D10A
:1041500022E0380706D4300704D441462046FFF752
:104160003DFD19E0B80717D4B00715D4608D68B1CC
:10417000606A216800788862606A401C6062608DB5
:10418000401E6085208D401E208505E0954200D0B0
:1041900015B92046FFF7ACFE002084F84000A2E7E6
:1041A0000000FFFF10B5C1F3090141EA02410268B6
:1041B000029C19432143506821F000414FF4806371
:1041C00003EA5453024C234398430843506010BD04
:1041D000FF63FF0310B590F841200021602A05D04D
:1041E000016380F84010FEF7B3F910BD202280F87B
:1041F0004120016380F84010FEF76CF910BD2DE9F5
:10420000F0411D4617460E460446DDF8188008E0CA
:10421000681C06D0FEF704F9A0EB0800A8420BD8F2
:1042200055B12068806936EA000012D00020B842FB
:10423000EED00020BDE8F08154F8440F40F020009B
:1042400044F80409202060700020A0702070012034
:10425000F0E70120EBE700002DE9F0412026904631
:104260000F460446002530E0424639462046FFF717
:1042700079FE10BB20688069C04380061ED4206888
:104280008169C943490701D4218D19BB8169C9439B
:10429000C90604D41021C1610420606400E0656493
:1042A0002068C66120684168114A1140416084F865
:1042B000416084F8425084F8405016E0FEF7B0F8B0
:1042C000A0EB0800B84208D83FB120688069C0431D
:1042D0004007C9D40020BDE8F08154F8440F40F0F5
:1042E000200044F80409667025700120F3E70000FF
:1042F00000E800FE70B516460D4604460DE0324655
:1043000029462046FFF72EFE08B1012070BDFEF7BA
:1043100087F8801BA84207D835B120688069C04360
:104320008006ECD4002070BD54F8440F40F020000B
:1043300044F80409202060700020A0702070E4E799
:1043400070B516460D4604460FE032462946204613
:10435000FFF708FE08B1012070BD681C05D0FEF70C
:104360005FF8801BA84207D835B120688069C04338
:104370008007EAD4002070BD54F8440F40F02000BC
:1043800044F80409202060700020A0702070E2E74B
:1043900000EB8100006E00F0F84070478068C0F3C9
:1043A000C00070478068C0F380007047C06810F498
:1043B000406F01D00020704701207047042303EABA
:1043C000D15310B518444369C1F3045107248C40FC
:1043D000A3438A401343436110BD00EB8100016E8B
:1043E00021F00041114301667047000030B587B0ED
:1043F00018216846FCF703F9184817490024C0E95A
:10440000001484600425C460C0E904450476447641
:104410000121C16180F820408462C46280F830408C
:10442000446380F83840FDF7F9FC08B172B6FEE746
:104430000B4800900620CDE901047F200594CDE9CA
:10444000030569460548FDF7E9F9002801D072B671
:10445000FEE707B030BD0000000004503801002026
:1044600000018021F0B587B014216846FCF7C7F839
:104470002148C16C41F00401C164C16C01F0040128
:104480000591C16C41F00101C164C16C01F00101F1
:104490000591C16C41F00201C164C06C4FF410641D
:1044A00000F00200E6040590002221463046FDF7A8
:1044B000B2FF124F002228213846FDF7ACFF01253C
:1044C000CDE9004500240294694630460394FDF787
:1044D000A1FEA802CDE90004694630460294FDF72A
:1044E00099FE28200090CDE901546946384603948E
:1044F000FDF790FE07B0F0BD001002400004004838
:10450000124810B510490160114941600021012293
:10451000C0E90212016141618161C1610162FEF77E
:1045200019F808B172B6FEE700210848FDF77EFFD2
:1045300008B172B6FEE700210448FDF7A2FF00288B
:1045400001D072B6FEE710BD005C00409C01002067
:10455000BB7C70000C4810B50A4901604FF416513D
:104560004160002181600C22C160C0E904128161B8
:10457000C16101624162FFF72FF9002801D072B6D4
:10458000FEE710BD00380140F00100200C4810B5D6
:104590000A4901604FF416514160002181600C22EC
:1045A000C160C0E904128161C16101624162FFF72B
:1045B00013F9002801D072B6FEE710BD0044004098
:1045C00074020020FEE7FEE72DE9F041444C054669
:1045D0008846E0680026810728680DD0E16801F070
:1045E0000301814216D1A8B1E0686968C0F30210E6
:1045F000401C88420ED120E0012804D0022805D0BA
:10460000032807D108E02168890701E021684905EE
:10461000002907DB01265FE02168890302D42168B5
:104620004903F5E7E1686A686FF00F0321F0730151
:1046300003EB021211430143E160206820F0806027
:104640002060FDF7EDFE074605E000BFFDF7E8FE40
:10465000C01B022837D820680001F7D4B8F1000F3A
:1046600018D0B8F1010F1DD0287D4FF07E414008D1
:1046700001EB4060A96840EA01202169194A114014
:1046800008432061206840F080602060FDF7C8FE8C
:1046900007461AE0A868297B000240EAC160216948
:1046A000114AECE7288A1149400801EB4050A968FB
:1046B00040EA012021690E4AE1E700BFFDF7B0FEA4
:1046C000C01B022801D9032606E020680001F5D5A9
:1046D0002069A969084320613046BDE8F0810000E7
:1046E00000100240FF80FFF9FF80FF070000E0FF9D
:1046F000FF809FFFF8B51C4D06460024A86DC00042
:1047000002D5FEF7E1F90DE0A86D40F08050A865F4
:10471000A86D00F080500090FEF7D6F9A96D21F049
:104720008051A965B0F5007F04D0802E07D94FF0E5
:1047300003040AE0802E08D9A02E01D804E001D19C
:10474000022402E0702E00D101240848016821F003
:10475000070121430160006800F00700A04201D07A
:104760000120F8BD0020F8BD0010024000200240EA
:10477000264C9FED250A264E84ED030A254FDFF8CF
:104780009890DFF8988084ED040A4FF4006A4FF0A7
:10479000904B00BF94ED030A616BBDEEC00AB142BD
:1047A00010EE100A94ED040ABDEEC00A10EE105A85
:1047B00001DD0A300A3500EE100AD7ED000AB8EE26
:1047C000C00AF4EEC00AF1EE10FA01D8012200E0AE
:1047D000002220214846FDF71EFE00EE105AD8EDBB
:1047E000000AB8EEC00AF4EEC00AF1EE10FA01D8E1
:1047F000012200E0002251465846FDF70CFE012040
:1048000000F03AFCC6E70000000070420000002003
:104810000000B84138000020000400483C0000209F
:104820002DED028B3A493B4E012082B00A25B41E81
:104830009FED398BDFF8E880DFF8E890E71C4FF454
:104840007A7A0860334A0123921ED02136480095B7
:10485000FDF774FF01232F4AD12133480095FDF75E
:10486000D7FE307820712B4A0123521ED0212E48CA
:104870000095FDF763FF274A0123521CD1212A48E6
:104880000095FDF7C5FE3878800902F09AFB53ECDD
:10489000182B02F0A9FB02F063FB00EE100A84ED76
:1048A0000C0A207900EE900AF8EE600A30EE800AD9
:1048B00084ED0D0A10EE100A02F094FC41EC100B8E
:1048C0001AA153EC102B1E48FBF7C8FD5046FDF70C
:1048D0008FFC15486438FDF7CBFB3220FDF788FCD0
:1048E00094ED0D0A104817A1BDEEC00AC8388DED31
:1048F000000A98ED000ABDEEC00A10EE103A99EDDC
:10490000000ABDEEC00A10EE102AFBF7A7FD99E7DA
:104910004000002002000020000000000000D03F06
:104920003C000020380000209C01002054656D7080
:10493000657261747572653A202566200D0A000063
:10494000F80200203C25642025642025643E0000F8
:104950004FF0FF3507492B460A2201F58E70FFF70D
:1049600089F800240520FDF743FC641C0A2CF9DBC0
:10497000F0E70000D4000020174C154F154E4FF003
:10498000FF38651D3946E06A01F05EFF0028F9D066
:10499000114943460222491D0E48FEF7EBFF3068DD
:1049A000016841F020010160287831286878A0F181
:1049B000300000EB80004FEA400000EE100AB8EE35
:1049C000C00A02D084ED040ADCE784ED030AD9E7CB
:1049D0003F420F00F001002000000020012000F005
:1049E0004BFBFBE7012000F047FBFBE710B5FDF7B1
:1049F000A3FF02F095F8012803D0BDE8104001F0B4
:104A00001FBC10BD10B596B044216846FBF7F7FDFA
:104A1000142111A8FBF7F3FD4FF40070FEF720F806
:104A200008B172B6FEE7FEF757F8184850F8901F25
:104A300021F0180101601420009001200290002450
:104A400060210690CDE907410221CDE90A100C90C2
:104A500010200D900720CDE90E0168461091FEF759
:104A6000A9FA08B172B6FEE70F2011900320CDE934
:104A700012041494012111A81594FEF783F908B1CA
:104A800072B6FEE7FEF730F816B010BD0010024017
:104A90000248016841F470010160704788ED00E050
:104AA00090F82410C90706D001684A68836A22F486
:104AB00000321A434A6090F82410890706D501682D
:104AC0004A68C36A22F480321A434A6090F824107C
:104AD000490706D501684A68036B22F480221A430D
:104AE0004A6090F82410090706D501684A68436BAC
:104AF00022F400421A434A6090F82410C90606D5F1
:104B000001688A68836B22F480521A438A6090F8A5
:104B10002410890606D501688A68C36B22F4005206
:104B20001A438A6090F82410490611D501684A6832
:104B3000036C22F480121A434A60016CB1F5801FA5
:104B400006D101684A68436C22F4C0021A434A60E5
:104B500090F82410090606D501684A68806C22F492
:104B6000002202434A607047F8B500260446C0F8A8
:104B70008060FDF755FC0546206800686FF07E47B1
:104B8000000708D52B4600224FF40011204600975D
:104B900000F036F960B92068006840070AD52B4656
:104BA00000224FF480012046009700F029F908B157
:104BB0000320F8BD2020A067E067266684F87460B3
:104BC0000020F8BD10B5806A0021A0F85A10A0F8A6
:104BD0005210FEF7B5FC10BD016851E8002F22F419
:104BE000907241E80023002BF6D10168083151E8AA
:104BF000002F22F0010241E80023002BF5D1016EC5
:104C0000012908D1026852E8001F21F0100142E892
:104C10000013002BF6D12021C167002101664166F7
:104C2000704700002DE9F041044601688068226960
:104C3000E66910436269002532431043694B0A68F4
:104C4000694E324002430A6020684168E26821F4FC
:104C50004051114341602168A069994201D0226A04
:104C600010438A6822F4306202438A605F492768F1
:104C70005F488F420DD1D0F8880010F0030006D0B5
:104C8000012838D0022834D0032821D135E0012171
:104C90001FE058498F420BD1D0F8880010F00C006B
:104CA00025D0042827D0082823D00C2810D124E0B0
:104CB0009F420DD1D0F8880010F4406017D0B0F5B5
:104CC000806F18D0B0F5006F13D0B0F5406F14D0DE
:104CD0001021494A00264FF400409F422FD171B164
:104CE00002290FD004290FD0082973D10FE0002129
:104CF000EFE70221EDE70421EBE70821E9E7FEF702
:104D0000E3F803E0104602E0FEF702F9F0B3626850
:104D100002EB420181425DD8B0EB023F5AD8010E4E
:104D200003025008181871410023FBF71FFB334A98
:104D3000A0F5407191424DD82168C8604BE0E3690D
:104D40004FF6EF77834228D1092943D2DFE801F0FB
:104D500005080B420D4242421000FEF7B5F806E08E
:104D6000FEF7C4F803E0104602E0FEF7D1F868B1A0
:104D70004100606801EB5001B1FBF0F0A0F11001BF
:104D8000B94227D84FF6F071014000E023E0C0F3AC
:104D9000420001432068C1601DE009291AD2DFE802
:104DA00001F005080B190D1919191000FEF78CF800
:104DB00006E0FEF79BF803E0104602E0FEF7A8F8D5
:104DC00048B1616800EB5100B0FBF1F0A0F11001B7
:104DD000B94205D9012566662846A666BDE8F08178
:104DE00080B2A9E700800040F369FFEF003801407E
:104DF00000100240004400400024F400FFFC0F00BB
:104E00002DE9F0479A4617460E4604464FF0000932
:104E10004FF02008089D4AE0681C48D0FDF700FBD1
:104E2000A0EB0A00A8422AD84DB3206801684907C0
:104E30003DD5C069C043000539D421684FF40060F6
:104E40000862206850E8001F21F4D07140E8001289
:104E5000002AF6D12068083050E8001F21F0010137
:104E600040E80012002AF5D1C4F87880C4F87C80AC
:104E7000C4F8808084F874900320BDE8F08721682E
:104E800051E8000F20F4D07041E80002002AF6D16A
:104E90002068083050E8001F21F0010140E80012AE
:104EA000002AF5D1C4F87880C4F87C80E2E7206855
:104EB000C06936EA000004D00020B842ACD000201F
:104EC000DBE70120F9E70000084810B50068016839
:104ED00021F02001016006484FF47A71006801F06A
:104EE000BEFBBDE810400148FEF72CBBF0010020DE
:104EF0002C0000200148FEF725BB000074020020B2
:104F0000FEE703B401984100009850EAC12018BFA1
:104F100004204A0D18BF40F0010040F2FF72B2EBCE
:104F2000515F08BF40F00200012808BF052002B011
:104F300070470907090E002804DB00F1E02080F823
:104F40000014704700F00F0000F1E02080F8141DFD
:104F50007047000008B5FDF7F7FCFFF753FDFFF7BA
:104F600081FAFFF713FBFFF741FAFFF7C9FAFFF7E2
:104F7000F1FA38480068016841F0200101603648C4
:104F80000E21024601703C21417032480A2402235E
:104F9000D02154380094FDF7D1FB2F480F21801CFD
:104FA00002460170882141702A480223D0215438DA
:104FB0000094FDF7C3FB28491120C91F0A46087059
:104FC00024480223D02154380094FDF7B7FB22492E
:104FD0001220891F0A4608701E480223D021543827
:104FE0000094FDF7ABFB00F057F801211B4A08467F
:104FF00000F082F8184C194AE41FD83AE062002108
:10500000174800F0D3F8154A6061B43A00211548FA
:1050100000F0CCF8114AA061903A0021124800F04B
:10502000C5F80E4AE0616C3A0021104800F0BEF865
:105030000A4A2062483A00210D4800F0B7F8074AB2
:105040006062243A00210B4800F0B0F8A06200F042
:1050500037F8FEE7F001002007000020B8730008D1
:1050600071470008214800085149000879490008A3
:10507000DD490008E549000810B50146EFF3058059
:1050800010B16FF0050404E0002411B1084600F0EF
:1050900017FF204610BD0000EFF30580002802D066
:1050A0006FF0050070470548016811B14FF0FF30FF
:1050B000704701210160002070470000A40000201B
:1050C00010B5EFF30580002802D06FF0050010BD89
:1050D00007480168012902D04FF0FF3010BD054A92
:1050E000002111700221016000F0A2FF002010BD1C
:1050F000A40000201FED00E0F8B50E4614464FF066
:105100000005EFF3058100294ED100284CD08642DE
:105110004AD84A1E5CB1A36823B1E168502901D383
:10512000012205E023B9E16811B9002200E0002264
:10513000B2F1FF3F38D0012809D0012A2AD03146E8
:1051400001F094F805467DB354B3216829E0012AA3
:1051500016D003220021012001F0C7F80546002DDA
:10516000F1D0002EEFD000231A461946284601F050
:105170005FF90128E7D0284600F04EFE0025E2E75F
:1051800003200090002211460120A36801F0CFF80F
:105190000546E4E73146A26801F086F80546D2E705
:1051A0000021284600F024FE2846F8BD2DE9F043F2
:1051B00085B00B464FF000070497EFF305810029F7
:1051C0004ED100284CD080244FF0180C8946491E3F
:1051D00052B3166806B1B146956905B1AC46ACF15B
:1051E0000105382D03D2157915F0010F03D005B054
:1051F0000020BDE8F083556905B1AC08D2F80880FD
:10520000B8F1000F07D0D6685C2E04D3166916B12A
:105210000DB1012109E0B8F1000F06D1D56825B91B
:10522000156915B9002100E00021012901D061B103
:1052300016E09168126901920291CDF800C02246F1
:10524000494601F03CFC04900AE004A90191A2B295
:10525000CDF800C0494601F0F9FB012800D00497C1
:10526000049805B0BDE8F0832DE9F04104460F46EF
:10527000134EF5683068001D00F0B6FCB4F1FF3F36
:1052800007D137B13068BDE8F041011D0D4800F08D
:10529000FEBC2C4430684460AC4206D23068011D2C
:1052A000B06BBDE8F04100F0D7BC3068011D706BF9
:1052B00000F0D2FCB06A844200D2B462BDE8F08152
:1052C000540000204C08002070B5044600F0ECFCAF
:1052D0001C4DA868401CA860286810B1686938B1E6
:1052E0000CE02C60A868012808D100F09DF905E0C9
:1052F0002868E16AC06A884200D82C60686A401C4D
:1053000068626064E06A2969884200D928610E49B0
:1053100000EB800001EB8000211D00F0B8FC00F0E4
:10532000E3FC686900280CD02868E16AC06A8842FA
:1053300007D206494FF080500860BFF34F8FBFF38C
:105340006F8F70BD540000209C03002004ED00E02E
:1053500038B500F0A9FC0F4C2068B8B90E4800F031
:105360006DFC0E4800F06AFC0B48E06014302061D0
:1053700000200B4B009003F1500210210A2000F096
:10538000D6FF206010B107A100F032FDBDE8384023
:1053900000F0AABC90000020500900206409002001
:1053A00060080020546D72510000000070B50D4C73
:1053B0006068002815D00C4E00F076FCF068C568D7
:1053C000281D00F011FCA068401EA0606068401E0F
:1053D000606000F089FC284600F051F86068002801
:1053E000EAD170BD54000020380800200B46026C42
:1053F000002A0CD0C1681144C160D0F808C06145D2
:1054000001D30168C160C1681846FBF7ABB87047AB
:105410002DE9F041044616460027A56B226C002AB0
:1054200010D0C6B1E068FBF79DF8E168206C091A5E
:10543000E1602268914202D2A168081AE060022E5F
:1054400016D017E02068A8B9A06801F0E3FB074672
:105450000020A0600EE06068FBF784F8216C6068B3
:1054600008446060A168884204D32068606001E05D
:1054700005B16D1E681CA0633846BDE8F08110B50B
:10548000044694F8591000290BD0012911D00229A3
:1054900014D0502080F31188BFF34F8FBFF36F8F6C
:1054A000FEE7206B00F036FC2046BDE8104000F01F
:1054B00031BC2046BDE8104000F02CBC10BD416A54
:1054C000002904D0006B0068C0F13800704700204C
:1054D000704700000749CA681168002904D00021FC
:1054E000016019B1002070470121F9E7D068006818
:1054F000704700009000002040F6B8310F4810F0CF
:10550000070F05D0C01D20F007000C4A821A891A27
:105510000B4A1060002353600144083921F0070151
:10552000183A11604B600B600B1A436001604068D1
:10553000906050604FF00040506170473010002084
:10554000C0000020074E4FF08054074DFFF72EFF9C
:1055500030680128FAD92C60BFF34F8FBFF36F8FEB
:10556000F4E700009C03002004ED00E070B51D4648
:10557000049C002909D02260E063216401212046B7
:1055800000F00EFF84F84C5070BD2460F4E72DE964
:10559000F05F82460B9F0A9D0C9C0E4690469B46F0
:1055A0004FEA8801A522206BFBF721F8206BA8F1B8
:1055B000010100EB810020F007094FF0000866B1FF
:1055C00000202218315C82F83410315C11B1401C8B
:1055D0001028F6D384F8438001E084F83480382D15
:1055E00000D33725E562E564C4F85080201D00F043
:1055F00030FB04F1180000F02CFB2461C5F13800E9
:10560000A0616462C4F8548084F858805A465146B8
:10561000484600F0D3FA2060002F00D03C6000F034
:1056200000B830BCBDE8C09F70B500240F4D04EB3E
:10563000840005EB800000F001FB641C382CF6D3DD
:105640000B4800F0FBFA0B4800F0F8FA0A4800F0AB
:10565000F5FA0A4800F0F2FA094800F0EFFA0948B2
:10566000034941631431816370BD00009C03002035
:10567000FC07002010080020240800203808002023
:105680004C0800205400002010B4144900E01146DA
:105690000A688242FBD34B6803EB010C844503D1BB
:1056A00040681844486008460C68D0F804C00CEB09
:1056B0000003A3420CD10A4B1B689A4206D05268E1
:1056C000624442600A681268026002E0036000E01F
:1056D0000260814200D0086010BC7047C00000200A
:1056E000A800002010B5002441600061DFF838C038
:1056F00091420BD8D11A8269914201D3012410E062
:10570000011DDCF8100000F0A7FA0AE09A4203D26B
:10571000994201D3012404E0011DDCF80C0000F0E3
:105720009BFA204610BD00009000002010B50446F2
:1057300000F0BAFAA06B20B1002400F0D5FA2046A0
:1057400010BD0124F9E710B5044600F0ADFAA06BD6
:10575000E16B884201D1012400E0002400F0C4FA8A
:10576000204610BDF8B505460E461748C068C0680B
:10577000C468201D00F038FA94F8280010F0040FD7
:1057800018D0A0692B46411932462046FFF7AAFFE0
:10579000A0B100200346014600902A46204601F0B1
:1057A0008FFB58B9502080F31188BFF34F8FBFF3A0
:1057B0006F8FFEE720F0010084F82800216A01B015
:1057C0002046BDE8F04008479000002030B587B083
:1057D000414D002202A9286800F092FF002875D0F0
:1057E0000298002803DA039A0599049890470298D2
:1057F000002864DB049C606910B1201D00F0F4F9FE
:1058000001A800F0B3F8024602980A2857D2DFE850
:1058100000F00505052F364D05052F3694F82800B4
:1058200040F0010084F828000398A1690346014470
:105830002046FFF757FF002841D0216A20468847BD
:1058400094F8280010F0040F39D00020009003983D
:10585000A169002342181946204601F031FB70BBB4
:10586000502080F31188BFF34F8FBFF36F8FFEE797
:1058700094F8280020F0010084F828001FE094F834
:10588000280040F0010084F828000398A06128B1A6
:10589000811813462046FFF725FF10E0502080F3C3
:1058A0001188BFF34F8FBFF36F8FFEE794F8280086
:1058B00010F0020F0CD020F0010084F82800002224
:1058C00002A9286800F01CFF002889D107B030BD6C
:1058D000204600F01FFAF2E790000020F8B50546D8
:1058E0000C4600F0EDFB684600F040F806460098D4
:1058F00010B101F04BFAF8BD44B9B54206D801F039
:1059000045FA31462846FFF72DFFF8BD0C481CB17B
:105910000169096891B10024A91B2246006800F0C2
:10592000A9FA01F033FA0028EFD106494FF0805070
:105930000860BFF34F8FBFF36F8FF8BD0124EBE713
:105940009000002004ED00E00749486B0068002843
:1059500005D0486BC068C0684068886270474FF0E7
:10596000FF308862704700005400002070B5044684
:1059700001F0E4F80546074EB068854204D200F015
:105980000BF80120206001E000202060B56028466F
:1059900070BD000090000020F8B51C4EF068006853
:1059A000002826D00027F068C0680568C468201D5C
:1059B00000F01AF9216A2046884794F8280010F070
:1059C000040F12D0A0692844A84206D9606024615F
:1059D000211DF06800F040F907E000232A4619462F
:1059E0002046009701F06CFA40B1F068006800288A
:1059F000D9D1F0683169F1603061F8BD502080F391
:105A00001188BFF34F8FBFF36F8FFEE79000002028
:105A10000A484068B0F1FF3F07D0502080F311885A
:105A2000BFF34F8FBFF36F8FFEE7502080F31188D5
:105A3000BFF34F8FBFF36F8FFEE70000C800002059
:105A400082B001A8FFF746FD0199FFF747FFFFF776
:105A5000BDFEF6E770B5044600F026F994F945500E
:105A6000002D0CDD606A50B104F1240001F052F900
:105A700008B100F055FA681E45B2002DF2DC4FF077
:105A8000FF3684F8456000F02FF900F00DF994F925
:105A90004450002D0CDD206950B104F1100001F0DC
:105AA00039F908B100F03CFA681E45B2002DF2DC6D
:105AB00084F84460BDE8704000F016B92DE9F0416B
:105AC0000546002600F0FCFA344F386808B9FFF7A5
:105AD00013FD7869054251D19DB1083515F0070FC6
